{
  "_format": "hh-sol-artifact-1",
  "contractName": "CertificateRegistry",
  "sourceName": "contracts/CertificateRegistry.sol",
  "abi": [
    {
      "inputs": [
        {
          "internalType": "address",
          "name": "student",
          "type": "address"
        }
      ],
      "name": "getCertificates",
      "outputs": [
        {
          "components": [
            {
              "internalType": "string",
              "name": "name",
              "type": "string"
            },
            {
              "internalType": "string",
              "name": "issuer",
              "type": "string"
            },
            {
              "internalType": "string",
              "name": "certificateHash",
              "type": "string"
            }
          ],
          "internalType": "struct CertificateRegistry.Certificate[]",
          "name": "",
          "type": "tuple[]"
        }
      ],
      "stateMutability": "view",
      "type": "function"
    },
    {
      "inputs": [
        {
          "internalType": "address",
          "name": "student",
          "type": "address"
        },
        {
          "internalType": "string",
          "name": "name",
          "type": "string"
        },
        {
          "internalType": "string",
          "name": "issuer",
          "type": "string"
        },
        {
          "internalType": "string",
          "name": "certificateHash",
          "type": "string"
        }
      ],
      "name": "issueCertificate",
      "outputs": [],
      "stateMutability": "nonpayable",
      "type": "function"
    }
  ],
  "bytecode": "0x6080604052348015600f57600080fd5b50610b258061001f6000396000f3fe608060405234801561001057600080fd5b50600436106100365760003560e01c80638eb933ac1461003b578063f1c49c6214610057575b600080fd5b6100556004803603810190610050919061055e565b610087565b005b610071600480360381019061006c9190610619565b610153565b60405161007e91906107e5565b60405180910390f35b6000808573ffffffffffffffffffffffffffffffffffffffff1673ffffffffffffffffffffffffffffffffffffffff1681526020019081526020016000206040518060600160405280858152602001848152602001838152509080600181540180825580915050600190039060005260206000209060030201600090919091909150600082015181600001908161011e9190610a1d565b5060208201518160010190816101349190610a1d565b50604082015181600201908161014a9190610a1d565b50505050505050565b60606000808373ffffffffffffffffffffffffffffffffffffffff1673ffffffffffffffffffffffffffffffffffffffff168152602001908152602001600020805480602002602001604051908101604052809291908181526020016000905b8282101561039b57838290600052602060002090600302016040518060600160405290816000820180546101e690610836565b80601f016020809104026020016040519081016040528092919081815260200182805461021290610836565b801561025f5780601f106102345761010080835404028352916020019161025f565b820191906000526020600020905b81548152906001019060200180831161024257829003601f168201915b5050505050815260200160018201805461027890610836565b80601f01602080910402602001604051908101604052809291908181526020018280546102a490610836565b80156102f15780601f106102c6576101008083540402835291602001916102f1565b820191906000526020600020905b8154815290600101906020018083116102d457829003601f168201915b5050505050815260200160028201805461030a90610836565b80601f016020809104026020016040519081016040528092919081815260200182805461033690610836565b80156103835780601f1061035857610100808354040283529160200191610383565b820191906000526020600020905b81548152906001019060200180831161036657829003601f168201915b505050505081525050815260200190600101906101b3565b505050509050919050565b6000604051905090565b600080fd5b600080fd5b600073ffffffffffffffffffffffffffffffffffffffff82169050919050565b60006103e5826103ba565b9050919050565b6103f5816103da565b811461040057600080fd5b50565b600081359050610412816103ec565b92915050565b600080fd5b600080fd5b6000601f19601f8301169050919050565b7f4e487b7100000000000000000000000000000000000000000000000000000000600052604160045260246000fd5b61046b82610422565b810181811067ffffffffffffffff8211171561048a57610489610433565b5b80604052505050565b600061049d6103a6565b90506104a98282610462565b919050565b600067ffffffffffffffff8211156104c9576104c8610433565b5b6104d282610422565b9050602081019050919050565b82818337600083830152505050565b60006105016104fc846104ae565b610493565b90508281526020810184848401111561051d5761051c61041d565b5b6105288482856104df565b509392505050565b600082601f83011261054557610544610418565b5b81356105558482602086016104ee565b91505092915050565b60008060008060808587031215610578576105776103b0565b5b600061058687828801610403565b945050602085013567ffffffffffffffff8111156105a7576105a66103b5565b5b6105b387828801610530565b935050604085013567ffffffffffffffff8111156105d4576105d36103b5565b5b6105e087828801610530565b925050606085013567ffffffffffffffff811115610601576106006103b5565b5b61060d87828801610530565b91505092959194509250565b60006020828403121561062f5761062e6103b0565b5b600061063d84828501610403565b91505092915050565b600081519050919050565b600082825260208201905092915050565b6000819050602082019050919050565b600081519050919050565b600082825260208201905092915050565b60005b838110156106ac578082015181840152602081019050610691565b60008484015250505050565b60006106c382610672565b6106cd818561067d565b93506106dd81856020860161068e565b6106e681610422565b840191505092915050565b6000606083016000830151848203600086015261070e82826106b8565b9150506020830151848203602086015261072882826106b8565b9150506040830151848203604086015261074282826106b8565b9150508091505092915050565b600061075b83836106f1565b905092915050565b6000602082019050919050565b600061077b82610646565b6107858185610651565b93508360208202850161079785610662565b8060005b858110156107d357848403895281516107b4858261074f565b94506107bf83610763565b925060208a0199505060018101905061079b565b50829750879550505050505092915050565b600060208201905081810360008301526107ff8184610770565b905092915050565b7f4e487b7100000000000000000000000000000000000000000000000000000000600052602260045260246000fd5b6000600282049050600182168061084e57607f821691505b60208210810361086157610860610807565b5b50919050565b60008190508160005260206000209050919050565b60006020601f8301049050919050565b600082821b905092915050565b6000600883026108c97fffffffffffffffffffffffffffffffffffffffffffffffffffffffffffffffff8261088c565b6108d3868361088c565b95508019841693508086168417925050509392505050565b6000819050919050565b6000819050919050565b600061091a610915610910846108eb565b6108f5565b6108eb565b9050919050565b6000819050919050565b610934836108ff565b61094861094082610921565b848454610899565b825550505050565b600090565b61095d610950565b61096881848461092b565b505050565b5b8181101561098c57610981600082610955565b60018101905061096e565b5050565b601f8211156109d1576109a281610867565b6109ab8461087c565b810160208510156109ba578190505b6109ce6109c68561087c565b83018261096d565b50505b505050565b600082821c905092915050565b60006109f4600019846008026109d6565b1980831691505092915050565b6000610a0d83836109e3565b9150826002028217905092915050565b610a2682610672565b67ffffffffffffffff811115610a3f57610a3e610433565b5b610a498254610836565b610a54828285610990565b600060209050601f831160018114610a875760008415610a75578287015190505b610a7f8582610a01565b865550610ae7565b601f198416610a9586610867565b60005b82811015610abd57848901518255600182019150602085019450602081019050610a98565b86831015610ada5784890151610ad6601f8916826109e3565b8355505b6001600288020188555050505",
  "deployedBytecode": "0x608060405234801561001057600080fd5b50600436106100365760003560e01c80638eb933ac1461003b578063f1c49c6214610057575b600080fd5b6100556004803603810190610050919061055e565b610087565b005b610071600480360381019061006c9190610619565b610153565b60405161007e91906107e5565b60405180910390f35b6000808573ffffffffffffffffffffffffffffffffffffffff1673ffffffffffffffffffffffffffffffffffffffff1681526020019081526020016000206040518060600160405280858152602001848152602001838152509080600181540180825580915050600190039060005260206000209060030201600090919091909150600082015181600001908161011e9190610a1d565b5060208201518160010190816101349190610a1d565b50604082015181600201908161014a9190610a1d565b50505050505050565b60606000808373ffffffffffffffffffffffffffffffffffffffff1673ffffffffffffffffffffffffffffffffffffffff168152602001908152602001600020805480602002602001604051908101604052809291908181526020016000905b8282101561039b57838290600052602060002090600302016040518060600160405290816000820180546101e690610836565b80601f016020809104026020016040519081016040528092919081815260200182805461021290610836565b801561025f5780601f106102345761010080835404028352916020019161025f565b820191906000526020600020905b81548152906001019060200180831161024257829003601f168201915b5050505050815260200160018201805461027890610836565b80601f01602080910402602001604051908101604052809291908181526020018280546102a490610836565b80156102f15780601f106102c6576101008083540402835291602001916102f1565b820191906000526020600020905b8154815290600101906020018083116102d457829003601f168201915b5050505050815260200160028201805461030a90610836565b80601f016020809104026020016040519081016040528092919081815260200182805461033690610836565b80156103835780601f1061035857610100808354040283529160200191610383565b820191906000526020600020905b81548152906001019060200180831161036657829003601f168201915b505050505081525050815260200190600101906101b3565b505050509050919050565b6000604051905090565b600080fd5b600080fd5b600073ffffffffffffffffffffffffffffffffffffffff82169050919050565b60006103e5826103ba565b9050919050565b6103f5816103da565b811461040057600080fd5b50565b600081359050610412816103ec565b92915050565b600080fd5b600080fd5b6000601f19601f8301169050919050565b7f4e487b7100000000000000000000000000000000000000000000000000000000600052604160045260246000fd5b61046b82610422565b810181811067ffffffffffffffff8211171561048a57610489610433565b5b80604052505050565b600061049d6103a6565b90506104a98282610462565b919050565b600067ffffffffffffffff8211156104c9576104c8610433565b5b6104d282610422565b9050602081019050919050565b82818337600083830152505050565b60006105016104fc846104ae565b610493565b90508281526020810184848401111561051d5761051c61041d565b5b6105288482856104df565b509392505050565b600082601f83011261054557610544610418565b5b81356105558482602086016104ee565b91505092915050565b60008060008060808587031215610578576105776103b0565b5b600061058687828801610403565b945050602085013567ffffffffffffffff8111156105a7576105a66103b5565b5b6105b387828801610530565b935050604085013567ffffffffffffffff8111156105d4576105d36103b5565b5b6105e087828801610530565b925050606085013567ffffffffffffffff811115610601576106006103b5565b5b61060d87828801610530565b91505092959194509250565b60006020828403121561062f5761062e6103b0565b5b600061063d84828501610403565b91505092915050565b600081519050919050565b600082825260208201905092915050565b6000819050602082019050919050565b600081519050919050565b600082825260208201905092915050565b60005b838110156106ac578082015181840152602081019050610691565b60008484015250505050565b60006106c382610672565b6106cd818561067d565b93506106dd81856020860161068e565b6106e681610422565b840191505092915050565b6000606083016000830151848203600086015261070e82826106b8565b9150506020830151848203602086015261072882826106b8565b9150506040830151848203604086015261074282826106b8565b9150508091505092915050565b600061075b83836106f1565b905092915050565b6000602082019050919050565b600061077b82610646565b6107858185610651565b93508360208202850161079785610662565b8060005b858110156107d357848403895281516107b4858261074f565b94506107bf83610763565b925060208a0199505060018101905061079b565b50829750879550505050505092915050565b600060208201905081810360008301526107ff8184610770565b905092915050565b7f4e487b7100000000000000000000000000000000000000000000000000000000600052602260045260246000fd5b6000600282049050600182168061084e57607f821691505b60208210810361086157610860610807565b5b50919050565b60008190508160005260206000209050919050565b60006020601f8301049050919050565b600082821b905092915050565b6000600883026108c97fffffffffffffffffffffffffffffffffffffffffffffffffffffffffffffffff8261088c565b6108d3868361088c565b95508019841693508086168417925050509392505050565b6000819050919050565b6000819050919050565b600061091a610915610910846108eb565b6108f5565b6108eb565b9050919050565b6000819050919050565b610934836108ff565b61094861094082610921565b848454610899565b825550505050565b600090565b61095d610950565b61096881848461092b565b505050565b5b8181101561098c57610981600082610955565b60018101905061096e565b5050565b601f8211156109d1576109a281610867565b6109ab8461087c565b810160208510156109ba578190505b6109ce6109c68561087c565b83018261096d565b50505b505050565b600082821c905092915050565b60006109f4600019846008026109d6565b1980831691505092915050565b6000610a0d83836109e3565b9150826002028217905092915050565b610a2682610672565b67ffffffffffffffff811115610a3f57610a3e610433565b5b610a498254610836565b610a54828285610990565b600060209050601f831160018114610a875760008415610a75578287015190505b610a7f8582610a01565b865550610ae7565b601f198416610a9586610867565b60005b82811015610abd57848901518255600182019150602085019450602081019050610a98565b86831015610ada5784890151610ad6601f8916826109e3565b8355505b6001600288020188555050505b50505050505056fea264697066735822122012dbf87ec5fc168a7",
  "linkReferences": {},
  "deployedLinkReferences": {}
}